:100000000C944F050C9477050C9477050C947705A8
:100010000C9477050C9477050C9477050C94770570
:100020000C9477050C9477050C9477050C94F517D0
:100030000C9477050C9477050C9477050C94770550
:100040000C9434160C9477050C94A4160C947E161C
:100050000C9477050C9477050C9477050C94770530
:100060000C94D6160C947705000103070F1F3F7FF1
:100070000080C0E0F0F8FCFE00000000003E5B4F96
:100080005B3E3E6B4F6B3E1C3E7C3E1C183C7E3CF8
:10009000181C577D571C1C5E7F5E1C00183C180006
:1000A000FFE7C3E7FF0018241800FFE7DBE7FF3096
:1000B000483A060E2629792926407F050507407F04
:1000C00005253F5A3CE73C5A7F3E1C1C08081C1C77
:1000D0003E7F14227F22145F5F005F5F06097F016D
:1000E0007F006689956A606060606094A2FFA29458
:1000F00008047E040810207E201008082A1C080826
:100100001C2A08081E101010100C1E0C1E0C303873
:100110003E3830060E3E0E06000000000000005F74
:1001200000000007000700147F147F14242A7F2A90
:100130001223130864623649562050000807030052
:10014000001C2241000041221C002A1C7F1C2A089E
:10015000083E080800807030000808080808000001
:1001600060600020100804023E5149453E00427F75
:10017000400072494949462141494D331814127FC4
:100180001027454545393C4A494931412111090764
:100190003649494936464949291E000014000000E5
:1001A00040340000000814224114141414140041B7
:1001B00022140802015909063E415D594E7C121174
:1001C000127C7F494949363E414141227F414141AC
:1001D0003E7F494949417F090909013E4141517327
:1001E0007F0808087F00417F41002040413F017F98
:1001F000081422417F404040407F021C027F7F0460
:1002000008107F3E4141413E7F090909063E4151A8
:10021000215E7F09192946264949493203017F0198
:10022000033F4040403F1F2040201F3F4038403F99
:10023000631408146303047804036159494D4300AF
:100240007F4141410204081020004141417F0402E6
:10025000010204404040404000030708002054547D
:1002600078407F284444383844444428384444285B
:100270007F385454541800087E090218A4A49C78AE
:100280007F0804047800447D40002040403D007F0A
:100290001028440000417F40007C047804787C08EA
:1002A0000404783844444438FC18242418182424BE
:1002B00018FC7C08040408485454542404043F44A3
:1002C000243C4040207C1C2040201C3C4030403CD2
:1002D00044281028444C9090907C4464544C440032
:1002E0000836410000007700000041360800020196
:1002F0000204023C2623263C1EA1A161123A404082
:10030000207A3854545559215555794122545478FE
:1003100042215554784020545579400C1E52721297
:100320003955555559395454545939555454580020
:1003300000457C410002457D420001457C407D1224
:1003400011127DF0282528F07C5455450020545486
:100350007C547C0A097F4932494949323A44444431
:100360003A324A4848303A4141217A3A424020786C
:10037000009DA0A07D3D4242423D3D4040403D3C6D
:1003800024FF2424487E4943662B2FFC2F2BFF0992
:1003900029F620C0887E0903205454794100004486
:1003A0007D413048484A32384040227A007A0A0A71
:1003B000727D0D19317D2629292F282629292926E4
:1003C00030484D4020380808080808080808382F29
:1003D00010C8ACBA2F102834FA00007B00000814B3
:1003E0002A142222142A14085500550055AA55AA89
:1003F00055AAFF55FF55FF000000FF00101010FF29
:1004000000141414FF001010FF00FF1010F010F083
:10041000141414FC001414F700FF0000FF00FF1474
:1004200014F404FC141417101F10101F101F1414C0
:10043000141F00101010F0000000001F101010100A
:100440001F10101010F010000000FF1010101010FE
:1004500010101010FF10000000FF140000FF00FF3C
:1004600000001F10170000FC04F4141417101714D8
:1004700014F404F40000FF00F714141414141414FA
:10048000F700F7141414171410101F101F1414146D
:10049000F4141010F010F000001F101F0000001FD7
:1004A00014000000FC140000F010F01010FF10FF0A
:1004B000141414FF141010101F00000000F010FF9F
:1004C000FFFFFFFFF0F0F0F0F0FFFFFF0000000083
:1004D00000FFFF0F0F0F0F0F3844443844FC4A4A07
:1004E0004A347E02020606027E027E0263554941BC
:1004F000633844443C04407E201E2006027E0202F3
:1005000099A5E7A5991C2A492A1C4C7201724C3006
:100510004A4D4D303048784830BC625A463D3E49DD
:100520004949007E0101017E2A2A2A2A2A44445F81
:10053000444440514A444040444A51400000FF0175
:1005400003E080FF000008086B6B08361236243683
:10055000060F090F060000181800000010100030E8
:1005600040FF0101001F01011E00191D1712003C70
:100570003C3C3C0000000000DB40A4A62EAF200065
:10058000A1C8D300408DAED580A800006000000057
:100590000000000000000000000000E0000000007B
:1005A00000000000000000000001E000000000006A
:1005B000000000000000000001F00000000000004A
:1005C0000000000000000003F00000000000000038
:1005D00000000000000007F0000000000000000024
:1005E000000000000007F80000000000000000000C
:1005F000000000000FF800000003C0007E000001B2
:10060000E0007F0FF800000003C000FE000001E0E2
:1006100000FFEFF800000003C000FE000001E00052
:10062000FFFFF800000003C000F00000000F007F93
:10063000FE7FC0000003C000F00000000F003FFE7E
:100640007FF83FF1FBCFFCFEF3BC3DEFE01FFE7FE8
:10065000FF7FFBFFDFFEFEFFBC3DEFE01FC6FFFF9D
:100660007FFBFFDFFEFEFFBC3DEFE00FE3C7FE7840
:100670007BC3DE1EF0FFBC3DEF0007FF87FC787BED
:10068000C3DE1EF0F83C3DEF0001FFFFF0007BC32E
:10069000C01EF0F03C3DEF0001F37FE03FFBC3CF15
:1006A000FEF0F03C3DEF0003E33F807FFBC3DFFE45
:1006B000F0F03C3DEF0007E73C00787BC3DE1EF026
:1006C000F03C3DEF0007FFBE00787BC3DE1EF0F07C
:1006D0003C3DEF0007FFFE00787BC3DE1EF0F03CE0
:1006E0003DEF000FFFFE007FFBFFDFFEF0F03FFD60
:1006F000EFE00FFFFF007FFBFFDFFEF0F03FFDEFBD
:10070000E00FF9FF003E79F9CF9EF0F01F3DE7E0E2
:100710001FF1FF0000000000000000000000001FAB
:1007200080FF007FFFFFFFFFFFFFFFFFFFE01C00D8
:100730007F007FFFFFFFFEB46D888D18E000001F73
:10074000007FFFFFFFFE95AD7DB577E000000F0055
:100750007FFFFFFFFEA5AD9D8D19E0000006007F25
:10076000FFFFFFFEB5ADEDB57EE00000000000012B
:100770008000000000000000000003800000000076
:10078000000000000007C0000000000000000000A2
:1007900007C00000000000000000000FC0000000C3
:1007A0000000000000001FE000000000000000004A
:1007B000001FE00000000000000000003FE000001B
:1007C000000000000000003FF000000000000000FA
:1007D00000007FF0000000000000001FF87FF00024
:1007E0000000000000003FFE7FF00000000000005D
:1007F000003FFF7FF0000000000000001FFFFBE053
:10080000000000000000000FFFF9FFC00000000022
:1008100000000FFFF9FFF800000000000007FFF1E3
:10082000FFFF00000000000003FC73FFFF800000DA
:1008300000000001FE3FFFFF80000000000000FFFD
:100840001E0FFF000000000000007FFE1FFC0000E4
:1008500000000000003FFFFFF80000000000000063
:100860000FDFFFE0000000000000001F19FFC000C4
:100870000000000000003F3CFF00000000000000FE
:10088000007E7CF800000000000000007FFE7C007D
:1008900000000000000000FFFFFC0000000000005E
:1008A0000000FFFFFE0000000000000000FFFFFE50
:1008B0000000000000000001FFEFFE00000000004B
:1008C000000001FFCFFE0000000000000003FF0752
:1008D000FE0000000000000003FC07FE0000000016
:1008E00000000003F003FE00000000000000018093
:1008F00000FE000000000000000000007E0000007C
:10090000000000000000003E0000000000000000A9
:1009100000000C000000000000078000FC00000345
:10092000C0000000078001FC000003C000000007B9
:100930008001FC000003C0000000078001E000000F
:10094000001E000000078001E00000001E007FE3A1
:10095000F79FF9FDE7787BDFC0FFF7FFBFFDFDFFE5
:10096000787BDFC0FFF7FFBFFDFDFF787BDFC0F0C6
:10097000F787BC3DE1FF787BDE00F0F787BC3DE107
:10098000F0787BDE0000F787803DE1E0787BDE00D9
:100990007FF7879FFDE1E0787BDE00FFF787BFFDF3
:1009A000E1E0787BDE00F0F787BC3DE1E0787BDEBC
:1009B00000F0F787BC3DE1E0787BDE00F0F787BC14
:1009C0003DE1E0787BDE00FFF7FFBFFDE1E07FFB6C
:1009D000DFC0FFF7FFBFFDE1E07FFBDFC07CF3F38B
:1009E0009F3DE1E03E7BCFC0000000000000000022
:1009F000000000FFFFFFFFFFFFFFFFFFFFC0FFFF43
:100A0000FFFFFD68DB111A31C0FFFFFFFFFD2B5A0E
:100A1000FB6AEFC0FFFFFFFFFD4B5B3B1A33C0FFDC
:100A2000FFFFFFFD6B5BDB6AFDC053534431333086
:100A30003620616C6C6F636174696F6E20666169EA
:100A40006C65640000000008000201000003040758
:100A50000000000000000000000000002500280049
:100A60002B0000000000240027002A0004040404D6
:100A70000404040402020202020203030303030348
:100A80000102040810204080010204081020010225
:100A9000040810202200FF210000B118E61E1124D6
:100AA0001FBECFEFD8E0DEBFCDBF11E0A0E0B1E0C8
:100AB000EEE6F7E402C005900D92A637B107D9F72C
:100AC00023E0A6E7B1E001C01D92A636B207E1F728
:100AD00015E0CEE4D5E004C02197FE010E94732208
:100AE000CD34D107C9F70E9494190C94AA230C9411
:100AF000000090E0FC01E058F54F24918459954F97
:100B0000FC018491882399F090E0880F991FFC01E3
:100B1000EE59F54FA591B491FC01E85AF54F859136
:100B200094918FB7F894EC91E22BEC938FBF0895DA
:100B30000895CF92DF92EF92FF92DC01A03282E023
:100B4000B807D4F5A53BB10514F0A4EBB0E0409193
:100B5000140328E830E0241B310947FD3395220FA8
:100B6000331F220F331F6901330FEE08FF08409136
:100B7000150328E532E0241B310947FD3395220F88
:100B8000331F220F331F032E000C440B550B2C195F
:100B90003D094E095F09B7FF02C0B0E0A0E00E9426
:100BA000C31F24EB30E040E050E00E94991FC20ECA
:100BB000D31EE41EF51ED601E0911303EC3080F540
:100BC0002091140388E890E0821B910927FD9395FA
:100BD000880F991F880F991FA817B90784F02091D3
:100BE000150388E592E0821B910927FD9395880FF4
:100BF000991F880F991FA817B9070CF4CD01029708
:100C0000880F991F4FB7F8942E2F30E0F901EE0F9F
:100C1000FF1FE20FF31FE251FD4F928381834FBF0D
:100C2000FF90EF90DF90CF90089590E0FC01EC5B97
:100C3000F54F2491FC01E058F54F3491FC01E45943
:100C4000F54FE491EE23C9F0222339F0233001F16E
:100C5000A8F4213019F1223029F1F0E0EE0FFF1F46
:100C6000E85AF54FA591B4918FB7F894EC916111C2
:100C700026C030953E233C938FBF08952730A9F0BE
:100C80002830C9F0243049F7809180008F7D03C05F
:100C9000809180008F7780938000DFCF84B58F773D
:100CA00084BDDBCF84B58F7DFBCF8091B0008F7783
:100CB0008093B000D2CF8091B0008F7DF9CF3E2BD2
:100CC000DACF3FB7F8948091490290914A02A091FF
:100CD0004B02B0914C0226B5A89B05C02F3F19F0DE
:100CE0000196A11DB11D3FBFBA2FA92F982F8827AC
:100CF000BC01CD01620F711D811D911D42E0660F87
:100D0000771F881F991F4A95D1F708958F929F9258
:100D1000AF92BF92CF92DF92EF92FF924B015C01B4
:100D20000E9461066B017C010E9461066C197D09BD
:100D30008E099F09683E734081059105A8F321E063
:100D4000821A9108A108B10888EEC80E83E0D81E67
:100D5000E11CF11C81149104A104B10429F7FF9056
:100D6000EF90DF90CF90BF90AF909F908F900895BD
:100D700008950895AF92BF92CF92DF92EF92FF92C3
:100D80000F931F93CF93DF936C017B018B01040FB3
:100D9000151FEB015E01AE18BF08C017D10759F04F
:100DA0006991D601ED91FC910190F081E02DC60191
:100DB0000995892B79F7C501DF91CF911F910F918B
:100DC000FF90EF90DF90CF90BF90AF900895FC011F
:100DD000538D448D252F30E0842F90E0821B930BA0
:100DE000541710F0CF96089501970895FC01918D46
:100DF000828D981761F0A28DAE0FBF2FB11D5D9649
:100E00008C91928D9F5F9F73928F90E008958FEFEA
:100E10009FEF0895FC01918D828D981731F0828D9E
:100E2000E80FF11D858D90E008958FEF9FEF0895F5
:100E3000FC01918D228D892F90E0805C9F4F821B59
:100E400091098F739927089581E592E00E94180710
:100E500021E0892B09F420E0822F089580E090E0C2
:100E6000892B29F00E94240781110C940000089519
:100E7000FC01A48DA80FB92FB11DA35ABF4F2C910F
:100E8000848D90E001968F739927848FA689B78906
:100E90002C93A089B1898C91837080648C93938DFD
:100EA000848D981306C00288F389E02D80818F7DA0
:100EB00080830895EF92FF920F931F93CF93DF9358
:100EC000EC0181E0888F9B8D8C8D98131AC0E88986
:100ED000F989808185FF15C09FB7F894EE89FF8955
:100EE0006083E889F98980818370806480839FBFF3
:100EF00081E090E0DF91CF911F910F91FF90EF90F3
:100F00000895F62E0B8D10E00F5F1F4F0F73112702
:100F1000E02E8C8D8E110CC00FB607FCFACFE8893D
:100F2000F989808185FFF5CFCE010E943807F1CF86
:100F3000EB8DEC0FFD2FF11DE35AFF4FF0829FB7B1
:100F4000F8940B8FEA89FB8980818062CFCFCF93A1
:100F5000DF93EC01888D8823B9F0AA89BB89E889E1
:100F6000F9898C9185FD03C0808186FD0DC00FB687
:100F700007FCF7CF8C9185FFF2CF808185FFEDCF05
:100F8000CE010E943807E9CFDF91CF9108950895EF
:100F9000FC016370668B8481958126813781613085
:100FA00039F0633029F0918780873387228708954D
:100FB000318720879387828708952F923F924F929F
:100FC0005F926F927F928F929F92AF92BF92CF92D9
:100FD000DF92EF92FF920F931F93CF93DF93CDB7E2
:100FE000DEB76A970FB6F894DEBF0FBECDBF9A8FFB
:100FF000898F7A8369834A01D22E18870F8337013C
:10100000BC2CDC0159962D913C915A972115310544
:1010100009F015C118968D919C9119976817790759
:101020000CF0D7C11A968D919C91481759070CF076
:10103000D0C14C2C512CB6E0CB9E600D711D1124FB
:101040007C876B87161617060CF0C3C1EA2DF0E0FB
:10105000FA87E98793E0EE0FFF1F9A95E1F7F88B87
:10106000EF87CF01840F951F181619060CF0B1C138
:10107000A98DBA8D58968C91811104C0BFEABD1517
:1010800008F4D394A98DBA8DED91FC911197028447
:10109000F385E02DCD010995B5E0DB9EC00111245B
:1010A000E981FA81FC83EB83312C212C9C012858A7
:1010B0003F4F388F2F8B4A2D50E05E8B4D8BEF8941
:1010C000F88DE20DF31D44919E828D82D12CC12CAE
:1010D00069817A81620D731D7A8B698B842F90E010
:1010E0009C8B8B8BE98DFA8DA081B18140FF82C0F2
:1010F000F1E0BF126FC0AF126DC01C96ED91FC9174
:101100002F813885A4014C0D5D1D69897A89898DEF
:101110009A8D0995EB89FC89F595E7954E2F5FEF40
:10112000C51AD50A6D817E818D899E89680F791FC8
:101130007E836D8398E0C916D10481F6AFEF2A1A39
:101140003A0AEB81FC81E40DF51DFC83EB83F5E0AD
:101150002F16310409F0B3CF2F81388526153705B6
:10116000B9F0A98DBA8DED91FC91B1E0BB1257C0D9
:10117000AB1255C069817A816B5F7F4F0088F1891E
:10118000E02D830128E030E0A401898D9A8D099536
:10119000A98DBA8DED91FC9111970688F789E02D04
:1011A000CD016A960FB6F894DEBF0FBECDBFDF91BA
:1011B000CF911F910F91FF90EF90DF90CF90BF9054
:1011C000AF909F908F907F906F905F904F903F90E7
:1011D0002F9009941E96ED91FC91EF80F88409857B
:1011E0001A8592014D815E816B817C81898D9A8DFA
:1011F000099590CF2F8138852615370509F48ACFB8
:1012000031E0B31207C0A31205C01C96ED91FC910A
:10121000930178CF1E96ED91FC917301E0CF6B8521
:101220007C85641975090684F785E02D73010F85A7
:1012300018899201A401898D9A8D0995A9CFF90188
:1012400034969491329745915491D91AB7E0DB9E28
:10125000400D511D1124F901259134913C8B2B8BAC
:10126000FA0125903490FA013296749031963491B7
:10127000398B329664903196449041E04C1518F0C9
:101280004A1508F07FC0662D062C000C770B7C8376
:101290006B83842D042C000C990B9E838D83A98D68
:1012A000BA8DED91FC9111970284F385E02DCD016B
:1012B0000995512CD12CC12CEA2DF0E0FA87E98751
:1012C0002B2D30E03C872B87A401440D511D47FC9A
:1012D0005A95588F4F8B69817A81660D711D67FC15
:1012E0007A957E876D877989C71608F051CF2C2DA6
:1012F00030E04D815E81420F531FA985BA854A9F18
:10130000C0014B9F900D5A9F900D1124FC01E80DD8
:10131000F91DF88BEF87852D612C4F89588D420F71
:10132000531F5E8B4D8B671408F050C044244394C8
:10133000480E877041F4C1010196EB89FC89E20DEA
:10134000F31DD4901C01D7FE19C0A98DBA8DED9163
:10135000FC91662D70E0B1E0BB1219C0AB1217C052
:101360002D853E85620F731F0484F585E02D2F8146
:1013700038854D895E89898D9A8D0995DD0C639438
:10138000842DD1CF1E821D821C821B8288CF4B816F
:101390005C81640F751FAB85BC856A9FC0016B9F24
:1013A000900D7A9F900D112469817A81680F791FC1
:1013B0000684F785E02DEF80F88409851A859D0164
:1013C0004F855889898D9A8D0995D8CF570CC3942C
:1013D0008ACF6A960FB6F894DEBF0FBECDBFDF91FD
:1013E000CF911F910F91FF90EF90DF90CF90BF9022
:1013F000AF909F908F907F906F905F904F903F90B5
:101400002F9008958F929F92AF92CF92EF92FF927A
:101410000F931F93CF93DF93EC01262F898D9A8D25
:10142000009709F051C06A30D1F41D861C868D8961
:1014300048E0849F900111248E859F85820F931F21
:101440009F878E8781E090E0DF91CF911F910F9170
:10145000FF90EF90CF90AF909F908F9008956D3058
:1014600089F3CC88AD888F898823C1F08C859D85D0
:1014700036E0C39E800D911D11244885598548177B
:10148000590764F44E855F851D861C8638E0A39E4F
:10149000C0011124840F951F9F878E87EA88FB88DF
:1014A000088919894E855F856C857D85CE010E94EE
:1014B000DD072C898C859D8546E0249F800D911D3C
:1014C00011249D878C87BECF6A3069F41D861C86E7
:1014D000FC013896E4912D898E859F85E29F800DD1
:1014E000911D1124ADCF6D3009F4ACCFFC013496C1
:1014F0003491631708F4A6CF3296E491E61708F406
:10150000A1CFFC01329685909490462F431B342F37
:1015100047E0349F800C911C1124F40132963491E1
:101520003196E4913323A9F1EE2399F1CC88F401AB
:101530003596E491AD884F89442301F10E2E000CBD
:10154000FF0BE30FF11DCE9EA001CF9E500D112485
:101550006C857D85460F571F6885798564177507EB
:101560006CF44E855F851D861C86FC013896E491DF
:10157000AE9E400D511D11245F874E87EA88FB887F
:10158000088919894E855F856C857D85CE010E940D
:10159000DD07F4013496E4912C898C859D85E29FCA
:1015A000800D911D11248DCF6F927F928F929F920B
:1015B000AF92BF92CF92DF92EF92FF920F931F9361
:1015C000CF93DF93EC016B015A0139014801E881A7
:1015D000F9810284F385E02D0995E881F98102887B
:1015E000F389E02D87019301A501B601CE0109958C
:1015F000A501480D591D41505109E881F981028822
:10160000F389E02D9301B601CE010995E881F981B6
:101610000088F189E02D9401A501B601CE0109955C
:10162000C60CD71CB60161507109E881F9810088A8
:10163000F189E02D9401A501CE010995E881F98198
:101640000688F789E02DCE01DF91CF911F910F9190
:10165000FF90EF90DF90CF90BF90AF909F908F90D2
:101660007F906F9009946F927F928F929F92AF922A
:10167000BF92CF92DF92EF92FF920F931F93CF937F
:10168000DF935C01EB016A01490138018701DC014C
:10169000ED91FC916217730719F5641675062CF02D
:1016A000962D872D3A01C92ED82E96012619370975
:1016B0002F5F3F4F048CF58DE02DA301BE01C501C6
:1016C0000995DF91CF911F910F91FF90EF90DF90DF
:1016D000CF90BF90AF909F908F907F906F90089524
:1016E0004615570591F42617370724F0892D4B012D
:1016F000C22FD82F9E01281939092F5F3F4F068C22
:10170000F78DE02DA601B401DACF0284F385E02D38
:101710000995D501ED91FC910488F589E02D8301AF
:101720009401A601BE01C5010995D501ED91FC9179
:101730000688F789E02DC501DF91CF911F910F91A8
:10174000FF90EF90DF90CF90BF90AF909F908F90E1
:101750007F906F900994EF92FF920F931F93DC019B
:101760001A960D911C911B9718962D913C911997E3
:10177000ED91FC9100A0F1A1E02D7B0150E040E053
:1017800070E060E009951F910F91FF90EF90089530
:101790004F925F926F927F928F929F92AF92BF9281
:1017A000CF92DF92EF92FF920F931F93CF93DF932D
:1017B0006C012B015A0139014801DC01ED91FC91CA
:1017C0000284F385E02D0995E201640C751CD601B5
:1017D000ED91FC91C615D7055CF40088F189E02DE8
:1017E00087019401A501BE01C60109952196EFCF9D
:1017F0000688F789E02DC601DF91CF911F910F91E7
:10180000FF90EF90DF90CF90BF90AF909F908F9020
:101810007F906F905F904F9009948F929F92AF92BC
:10182000BF92CF92DF92EF92FF920F931F93CF93CD
:10183000DF93EC015B014A016901E881F9810284CF
:10184000F385E02D099595012C0D3D1D21503109A1
:10185000E881F9810488F589E02D78018401A401EB
:10186000B501CE010995E881F9810688F789E02D57
:10187000CE01DF91CF911F910F91FF90EF90DF90FC
:10188000CF90BF90AF909F908F9009948F929F922E
:10189000AF92BF92CF92DF92EF92FF920F931F937E
:1018A000CF93DF93EC015B014A0169017801E88184
:1018B000F9810284F385E02D0995C80CD91C8601B5
:1018C00001501109E881F9810488F589E02D95011D
:1018D000A401B501CE010995E881F9810688F7894F
:1018E000E02DCE01DF91CF911F910F91FF90EF90EE
:1018F000DF90CF90BF90AF909F908F900994EF9220
:10190000FF920F931F93DC01ED91FC9100A0F1A1D8
:10191000E02D09951F910F91FF90EF9008950F937F
:101920001F93DC01ED91FC91068CF78DE02D09955C
:101930001F910F9108950F931F93DC01ED91FC917E
:10194000048CF58DE02D09951F910F910895DC0110
:10195000ED91FC910084F185E02D09943F924F9226
:101960005F926F927F928F929F92AF92BF92CF922F
:10197000DF92EF92FF920F931F93CF93DF935C015F
:101980007B014A016901390187E0680E711C93E00F
:10199000759467949A95E1F72B01400E511E10E063
:1019A00000E0312CD0E0C0E0CE0187709927330CE5
:1019B000892B59F4FE0183E0F595E7958A95E1F7C7
:1019C000E00FF11FE80DF91D349037FE0AC021E049
:1019D00030E0A701B5016C0F7D1F82E293E00E9409
:1019E000A70C2196CC16DD06F9F68FEFE81AF80A57
:1019F000060D171DE414F504A9F6DF91CF911F9190
:101A00000F91FF90EF90DF90CF90BF90AF909F909D
:101A10008F907F906F905F904F903F9008952F929E
:101A20003F924F925F926F927F928F929F92AF926E
:101A3000BF92CF92DF92EF92FF920F931F93CF93BB
:101A4000DF9300D000D000D0CDB7DEB73C016A01F3
:101A50003E832D83FC82EB825801A41AB50AB7FE9F
:101A600003C0B194A194B1088D809E80861A970A14
:101A700097FE03C09194819491088A149B045CF0B2
:101A8000902F812F0D811E819D838E839C2D8D2D06
:101A90006B01692F782F0C151D055CF09D818E81DF
:101AA0007E836D83692F782F902F812F8601C92E19
:101AB000D82E1601201A310A2B012D813E81421A9F
:101AC000530A57FE03C0519441945108710137FEE7
:101AD00003C03FEFE31AF30AF594E7948D819E81EA
:101AE000861797075CF5A1E0B0E0BA83A983C0161A
:101AF000D1064CF1D301ED91FC910484F585E02DE4
:101B00002B813C81A8016D817E818A149B041CF08D
:101B10004D815E81B801C3010995E418F508F7FE0F
:101B20000AC02D813E8189819A81280F391F3E8309
:101B30002D83E20CF31C0F5F1F4FD9CF2FEF3FEF28
:101B40003A832983D4CF26960FB6F894DEBF0FBE12
:101B5000CDBFDF91CF911F910F91FF90EF90DF905C
:101B6000CF90BF90AF909F908F907F906F905F903D
:101B70004F903F902F900895EF92FF920F931F93F5
:101B8000CF93DF93EC01EC80FD806E157F050CF0A8
:101B900070C057FF04C0240F351F50E040E08E8115
:101BA0009F81FA01E20FF31F8E179F071CF49C011F
:101BB000241B350B121613060CF05BC0922F842FDA
:101BC0008695869586958E9DD0018F9DB00D1124AA
:101BD0006A0F7B1FAF8DB8A1A60FB71F477049F1E1
:101BE00088E0841B482F682F70E0FB01E059FF4F0D
:101BF000E491281708F063C0621B71092FEF30E0F1
:101C000002C0359527956A95E2F7E2230130110568
:101C100039F0B0F10230110561F58C91E82702C06E
:101C20008C91E82BEC93941720F12C813D81A20F2D
:101C3000B31FE92FE41BE83078F00230110521F5DD
:101C40008E2F9C9190959C932C813D81A20FB31F68
:101C500088508830B0F7E770EE2359F0F0E0E8598B
:101C6000FF4FE49101301105F9F010F10230110538
:101C700019F1DF91CF911F910F91FF90EF9008958F
:101C8000E0958C91E823CECF81E00115110509F490
:101C900080E081959E2F8C932C813D81A20FB31FF4
:101CA00098509830C0F7D7CF8C91E82BEC93E1CFC8
:101CB000E0958C91E823FACF8C91E827F7CF01309B
:101CC000110509F4ADCFE0F20230110509F4A5CFFA
:101CD000AE0DBF1DAECF0F931F93CF93DF9377FF52
:101CE00004C0260F371F70E060E0DC011496CD9130
:101CF000DC91FB01E20FF31FCE17DF071CF49E01FE
:101D0000261B370B121613064CF5FA0157FD3796B2
:101D1000A3E0F595E795AA95E1F7EC9FD001ED9F3B
:101D2000B00DFC9FB00D11246A0F7B1FDC015F9684
:101D3000ED91FC91E60FF71F4770552781E090E089
:101D400001C0880F4A95EAF7482F0130110559F074
:101D5000A8F02E0F3F1F02301105E1F0DF91CF9167
:101D60001F910F9108952E0F3F1FE217F307B1F354
:101D70008191DF011197842B8C93F7CF80952E0FE3
:101D80003F1FE217F30751F39191DF011197982359
:101D90009C93F7CFE217F30709F38191DF011197C5
:101DA00084278C93F7CF0F931F93FA01DC0156968B
:101DB0004C9156974230E9F04330A1F1413061F542
:101DC00014964D915C91DA01AE1BBF0BFD01E21B35
:101DD000F30B77FD0BC0DC0116964D915C916417F7
:101DE000750724F4AB01BF010E946B0E1F910F9188
:101DF000089514964D915C91DA01A61BB70BBD01B5
:101E000061507109DC0116964D915C91DA01AE1BAF
:101E1000BF0BFD01E21BF30B77FDE8CFAF010E9482
:101E2000BC0DE4CF16964D915C91DA01A61BB70B61
:101E3000BD0161507109CDCF0F931F93FA01DC01F1
:101E400056964C9156974230A9F0433091F141306B
:101E500019F514964D915C91DA01AE1BBF0BFD0193
:101E60003197F7FD04C0AB01BF010E94BC0D1F916B
:101E70000F91089514964D915C91DA01A61BB70B52
:101E8000BD01DC0116964D915C91DA01AE1BBF0BD2
:101E9000FD013197621B730BF7FDE9CFDC0116964C
:101EA0004D915C91E417F50714F7AF010E946B0E9A
:101EB000DECF16964D915C91DA01A61BB70BBD01E2
:101EC000621B730BCECFFC0177FD64C080859185CA
:101ED000681779070CF05EC057FD5CC0828593855A
:101EE000481759070CF056C086898230B1F083300C
:101EF00029F1813041F484819581841B950BAB01DC
:101F0000BC01615071092130310509F108F443C069
:101F10002230310509F463C0089584819581DC0184
:101F2000A61BB70BBD016150710986819781DC0149
:101F3000A41BB50BAD0141505109E5CF86819781B6
:101F4000861B970BBA01AC0141505109DCCFCA0185
:101F500057FD0796A3E095958795AA95E1F7A4818B
:101F6000B5818A9F90018B9F300D9A9F300D11246F
:101F7000620F731F078CF0A1E02DE60FF71F47706B
:101F8000552721E030E001C0220F4A95EAF7808111
:101F9000822B80830895CA0157FD079633E09595FB
:101FA00087953A95E1F7A481B5818A9F90018B9F2F
:101FB000300D9A9F300D1124620F731F078CF0A112
:101FC000E02DE60FF71F4770552781E090E001C034
:101FD000880F4A95EAF7809590818923DACFCA0164
:101FE00057FD079623E0959587952A95E1F7A481FB
:101FF000B5818A9F90018B9F300D9A9F300D1124DF
:10200000620F731F078CF0A1E02DE60FF71F4770DA
:10201000552721E030E001C0220F4A95EAF7808180
:102020008227B7CF08958EBD00000DB407FEFDCF07
:102030008EB508958CBD9DBD089508952091DD0154
:10204000260F3327331F21323105ECF42091010292
:10205000FC0190E080E0243069F082E00895A091D6
:10206000DD012191AC0143545E4FA40FB52FB11D8A
:102070002C930196861798F38091DD01680F609389
:10208000DD0180E0089581E008951092010281E071
:10209000809303021092020261E082E10E94150621
:1020A00061E083E10E941506E9EBF0E080818E7F1C
:1020B000808380818D7F808388E48093B80085E46D
:1020C0008093BC000895CF93DF9391E09093BC017F
:1020D0008823B9F0C091B800D091BA008091BC00BB
:1020E0008A7B8093BC0060E082E10E94150660E07C
:1020F00083E10E9415060E944510D093BA00C09358
:10210000B800DF91CF910895E0912D0280912C02CB
:10211000E81730F4F0E0E956FE4F808190E0089532
:102120008FEF9FEF089590912D0280912C022FEF59
:102130003FEF981748F4E92FF0E0E956FE4F208171
:1021400030E09F5F90932D02C901089580912C0289
:1021500090912D02891B990B0895CF92DF92EF92F7
:10216000FF920F931F93CF93DF937C01CB018A01E2
:1021700020915002222389F0EB016B01C40ED51E81
:10218000CC15DD0569F06991D701ED91FC910190C5
:10219000F081E02DC7010995F3CF642F0E941E1036
:1021A000C801DF91CF911F910F91FF90EF90DF90C9
:1021B000CF900895CF93DF931F92CDB7DEB7698399
:1021C000209150022223F9F020914D02203258F044
:1021D00021E030E0FC013383228390E080E00F9027
:1021E000DF91CF91089580914E02E82FF0E0E958F9
:1021F000FE4F998190838F5F80934E0280934D02B2
:1022000081E090E0ECCF61E0CE0101960E941E10CB
:10221000F7CFCF92DF92EF92FF920F931F93CF935E
:10222000DF93D0914D0281E0D13208F09CC0C09183
:102230004F020E9461066B017C01809101028111B5
:102240006CC082E08093010281E0809303028FEFF3
:102250008093000210922502D0932402A7E7B1E0F8
:10226000E4E0F2E080E0D8138DC010922602809165
:102270002602CC0FC82BC093260280910202813027
:1022800009F084C0109202020E9461066B017C0179
:10229000809126028093BB008091B8019091B90192
:1022A000A091BA01B091BB01892B8A2B8B2BA1F095
:1022B0000E9461060091B8011091B9012091BA0104
:1022C0003091BB016C197D098E099F09061717070C
:1022D0002807390708F442C08091BC0083FDD8CF9D
:1022E00085EC8093BC000E9461066B017C018091AB
:1022F0000102823009F44CC0809100028F3F09F442
:1023000069C080910002803209F466C080910002A9
:10231000803309F463C084E026C08091B8019091B5
:10232000B901A091BA01B091BB01892B8A2B8B2BEB
:1023300009F483CF0E9461060091B8011091B901A0
:102340002091BA013091BB016C197D098E099F095A
:10235000061717072807390708F06FCF8091B701D4
:102360000E94631085E010924E0210924D0210926E
:102370005002DF91CF911F910F91FF90EF90DF906E
:10238000CF9008959D9191938F5F6DCF85EEA9CFEA
:102390008091B8019091B901A091BA01B091BB01AF
:1023A000892B8A2B8B2B09F4A2CF0E946106009106
:1023B000B8011091B9012091BA013091BB016C199B
:1023C0007D098E099F09061717072807390708F0A6
:1023D0008ECFC4CF80E0C7CF82E0C5CF83E0C3CF2C
:1023E000EF92FF920F931F93CF93DF937C01C62F41
:1023F00080913F0390914003009709F459C02091C8
:10240000430331E03093500220934F0210924E026A
:1024100010924D02DC01ED91FC910190F081E02DD4
:1024200060E009958701EE24E394F12CD1E0C150DE
:1024300080913F0390914003CF3F91F1B0E2EB16C2
:10244000F104D8F00E94091180913F03909140035C
:1024500020914303D093500220934F0210924E02DA
:1024600010924D02DC01ED91FC910190F081E02D84
:1024700060E00995EE24E394F12C80913F03909164
:102480004003F8016491DC01ED91FC910190F08131
:10249000E02D0995BFEFEB1AFB0A0F5F1F4FC7CF67
:1024A000DF91CF911F910F91FF90EF900C94091144
:1024B000E0914F03F09150039081809155038095F6
:1024C000892380838701C15008F438C0F8018491C2
:1024D00020913D0330913E03232B29F00E941310DD
:1024E0000F5F1F4FF0CF28E030E040E8E0914B0352
:1024F000F0914C0390915303582F5423D9F05081FD
:10250000952B9083E0914D03F0914E039081509173
:102510005403952B9083E0914D03F0914E0350812D
:1025200090915403909595239083469521503109BD
:10253000E9F6D6CF508190959523E3CFDF91CF91E7
:102540001F910F91FF90EF9008951F93CF93DF930A
:10255000EC018D8D9E8D009721F1162F29A131E080
:102560003093500220934F0210924E0210924D026F
:10257000DC01ED91FC910190F081E02D60E0099586
:102580008D8D9E8DDC01ED91FC910190F081E02D0F
:10259000612F09958D8D9E8DDF91CF911F910C94A8
:1025A0000911ADA5BEA59C918BA9809589238C931B
:1025B0008B8D9C8D892B31F0862FDF91CF911F91D0
:1025C0000C94131028E030E080E8A9A5BAA599A9D9
:1025D000462F4823C1F04C91942B9C93ABA5BCA5EE
:1025E0009C914AA9942B9C93ABA5BCA54C919AA90C
:1025F000909594239C9386952150310931F7DF9172
:10260000CF911F9108954C9190959423E6CFDF923E
:10261000EF92FF920F931F93CF93DF9380913F032D
:1026200090914003892B09F498C020915703309171
:1026300058034091590350915A0360E074E284EFCB
:1026400090E00E94CB1F2051310941095109569554
:102650004795379527952093B80065E084E99AE07F
:102660000E94F01160912603615082E293E00E9483
:10267000A5122091280330912903C901079697FDDF
:10268000079633E0959587953A95E1F720912603D3
:1026900030912703829F8001839F100D929F100D20
:1026A0001124C0914103D091420380913F03909146
:1026B00040030C0F1D1F009709F48FC020914303A6
:1026C00031E03093500220934F0210924E0210924C
:1026D0004D02DC01ED91FC910190F081E02D60E470
:1026E0000995EE24E394F12CDD24D39480913F03EB
:1026F000909140030C171D0709F446C0B0E2EB1699
:10270000F104D8F00E94091180913F039091400399
:1027100020914303D092500220934F0210924E0218
:1027200010924D02DC01ED91FC910190F081E02DC1
:1027300060E40995EE24E394F12C80913F0390919D
:1027400040036991DC01ED91FC910190F081E02D55
:102750000995BFEFEB1AFB0AC9CF80913D03909119
:102760003E03892B31F080916003909161030E94B8
:102770001A10E0915103F091520390818091560319
:1027800080958923808369CF0E94091180913F033E
:1027900090914003892B09F461C020915B03309133
:1027A0005C0340915D0350915E0360E074E284EF4E
:1027B00090E00E94CB1F20513109410951095695E3
:1027C0004795379527952093B800DF91CF911F91BA
:1027D0000F91FF90EF90DF900895E0914F03F091FB
:1027E0005003808190915503892B80830C171D071E
:1027F00069F2899120913D0330913E03232B19F01A
:102800000E941310F3CF28E030E040E8E0914B0342
:10281000F0914C0390915303582F5423D9F05081D9
:10282000952B9083E0914D03F0914E039081509150
:102830005403952B9083E0914D03F0914E0350810A
:10284000909154039095952390834695215031099A
:10285000E9F6CCCF508190959523E3CFE0915103D9
:10286000F0915203808190915603892B8083ADCFE4
:102870001F93CF93DF93EC01162F8D8D9E8D892BA7
:10288000B1F12DA93EA94FA958AD60E074E284EFE3
:1028900090E00E94CB1F2051310941095109569502
:1028A0004795379527952093B80066EA111167EA96
:1028B000CE010E94A5128D8D9E8D892B41F129ADEF
:1028C0003AAD4BAD5CAD60E074E284EF90E00E9405
:1028D000CB1F20513109410951095695479537952C
:1028E00027952093B800DF91CF911F9108958B8D8C
:1028F0009C8D892B21F08EAD9FAD0E941A10EFA503
:10290000F8A990818CA9809589238083CECFEFA5EB
:10291000F8A980819CA9892B8083E5CF90E080E095
:1029200008952091280330912903C901079697FD46
:10293000079623E0959587952A95E1F72091260340
:1029400030912703829FA001839F500D929F500DCD
:10295000112470E060E080914103909142030C9457
:10296000A3230E949E23FB0101900020E9F73197E9
:10297000AF01461B570BDC01ED91FC910280F38106
:10298000E02D09948F929F92AF92BF92EF92FF92A7
:102990000F931F93CF93DF93CDB7DEB7A1970FB6F9
:1029A000F894DEBF0FBECDBF7C01FA01CB0119A2A6
:1029B000223008F42AE08E010F5D1F4F822E912CE9
:1029C000B12CA12CBF01A50194010E94CB1FF901DC
:1029D000CA016A300CF5605DD8016E938D01232B1E
:1029E000242B252B79F790E080E0109721F0BD0192
:1029F000C7010E94B314A1960FB6F894DEBF0FBEB4
:102A0000CDBFDF91CF911F910F91FF90EF90BF90BD
:102A1000AF909F908F900895695CDECF2F923F9288
:102A20004F925F926F927F928F929F92AF92BF92DE
:102A3000CF92DF92EF92FF921F93CF93DF93EC013F
:102A40006A017B01722EAB019601CB01B6010E9497
:102A50003A226EE571E0811126C046015701E894E3
:102A6000B7F82FEF3FEF4FE75FE7C501B4010E94D2
:102A70003A2281110CC02FEF3FEF4FE75FE7C5010E
:102A8000B4010E94692062E671E0181664F02FEF2D
:102A90003FEF4FE75FE4C701B6010E94C821181657
:102AA000B4F466E671E0CE01DF91CF911F91FF9003
:102AB000EF90DF90CF90BF90AF909F908F907F90DE
:102AC0006F905F904F903F902F900C94B3142FEF26
:102AD0003FEF4FE75FECC701B6010E94692087FD19
:102AE000E0CF20E030E0A901C701B6010E946920D3
:102AF000312C212C87FF0DC0E881F9810190F081F4
:102B0000E02D6DE2CE0109951C01F7FAF094F7F87B
:102B1000F09410E060E070E080E09FE3711641F017
:102B200020E030E040E251E40E946E201F5FF6CFCB
:102B3000A70196010E94FD1F2B013C010E94E72086
:102B40004B015C012AE0BC01A401CE010E94C21429
:102B50007C01E20CF31C1123E1F1C501B4010E94D8
:102B600016219B01AC01C301B2010E94FC1F4B0165
:102B70005C01E881F9810190F081E02D6EE2CE01E7
:102B80000995E80EF91E115020F120E030E040E2F6
:102B900051E4C501B4010E94CD212B013C010E94EA
:102BA000E7204B01B12CA12C2AE0B501A401CE01F4
:102BB0000E94C214E80EF91EC501B4010E9416213C
:102BC0009B01AC01C301B2010E94FC1F4B015C01DF
:102BD000DACFC701DF91CF911F91FF90EF90DF9087
:102BE000CF90BF90AF909F908F907F906F905F90AD
:102BF0004F903F902F90089585ED8093BC00809179
:102C0000B8019091B901A091BA01B091BB010796AA
:102C1000A11DB11D23E0B695A795979587952A9597
:102C2000D1F72091BC0024FD03C010920102089549
:102C30004091B8015091B9016091BA017091BB0106
:102C4000452B462B472B69F30097A105B10541F0B1
:102C50002AE22A95F1F700C00197A109B109E1CF55
:102C60008091B7010C9463101F920F920FB60F92D0
:102C700011242F933F938F939F93AF93BF93809192
:102C8000450290914602A0914702B09148023091CE
:102C9000440223E0230F2D3758F50196A11DB11DE5
:102CA000209344028093450290934602A0934702EA
:102CB000B09348028091490290914A02A0914B0240
:102CC000B0914C020196A11DB11D809349029093D1
:102CD0004A02A0934B02B0934C02BF91AF919F91D7
:102CE0008F913F912F910F900FBE0F901F901895CD
:102CF00026E8230F0296A11DB11DD2CF1F920F927D
:102D00000FB60F9211242F933F934F935F936F93BE
:102D10007F938F939F93AF93BF93EF93FF9381E53F
:102D200092E00E943807FF91EF91BF91AF919F9180
:102D30008F917F916F915F914F913F912F910F9064
:102D40000FBE0F901F9018951F920F920FB60F9203
:102D500011242F938F939F93EF93FF93E091610240
:102D6000F09162028081E0916702F091680282FD39
:102D70001BC0908180916A028F5F8F7320916B02DC
:102D8000821741F0E0916A02F0E0EF5AFD4F958F13
:102D900080936A02FF91EF919F918F912F910F90F5
:102DA0000FBE0F901F9018958081F4CF1F920F9245
:102DB0000FB60F9211242F933F934F935F936F930E
:102DC0007F938F939F93AF93BF93EF93FF938091E4
:102DD000B900887F803609F44AC0F0F5883209F4DA
:102DE000A7C018F5803109F49BC0B8F4882309F412
:102DF000F9C0883009F494C0FF91EF91BF91AF9171
:102E00009F918F917F916F915F914F913F912F9102
:102E10000F900FBE0F901F901895883109F488C04D
:102E2000803251F78093000214C0803409F49DC0B1
:102E300040F48033B9F38833F9F68093000285ECCF
:102E4000B0C0803509F485C0883509F496C088344F
:102E500099F60E94FC15D0CF883909F48CC038F55A
:102E6000883729F050F4883611F0803729F683E04E
:102E7000809301021092FF0157C0883809F47BC08B
:102E8000803919F0803809F0B7CF8091FF01803286
:102E900008F071C0E091FF0181E08E0F8093FF0187
:102EA0008091BB00F0E0E152FE4F80833DC0803B4B
:102EB00039F0E0F4803A09F479C0883A09F09CCFFF
:102EC00084E0809301021092DE011092DD01E09116
:102ED0002A02F0912B0209958091DD0181110FC02A
:102EE00081E08093DD011092BD0109C0803C09F4AE
:102EF000A6CF883C09F4A3CF883B09F07DCFE091B1
:102F0000DE0181E08E0F8093DE01F0E0E354FE4F9E
:102F100080818093BB009091DE018091DD0129C00A
:102F2000809126028093BB0085EC8093BC0064CF27
:102F30009091250280912402981758F5E09125027E
:102F400081E08E0F80932502F0E0EC5FFD4F8081E1
:102F5000E9CFE091250281E08E0F809325028091D8
:102F6000BB00F0E0EC5FFD4F8083909125028091E3
:102F700024029817C8F285E8D8CFE091250281E0B5
:102F80008E0F809325028091BB00F0E0EC5FFD4F37
:102F900080838091030281115CCF81E080930202E3
:102FA00084EA8093BC001092010226CF85EC8093C6
:102FB000BC00109201028091FF01803230F4E09158
:102FC000FF01F0E0E152FE4F10826091FF0170E0DE
:102FD000E0912802F09129028FED91E0099510927D
:102FE000FF010ACF1092000234CF1F920F920FB64A
:102FF0000F9211242F933F934F935F936F937F937F
:103000008F939F93AF93BF93CF93DF93EF93FF93F0
:1030100080917601C0911203D0E087FF24C0109206
:10302000850010928400809176018F5F80937601F5
:1030300080917601082E000C990B8C179D0724F4C3
:10304000809176018C30C4F180918400909185004C
:10305000049680349C4908F47AC080918400909151
:103060008500049676C080917601082E000C990B9D
:103070008C179D07C4F6E09176018E2FEE0F990B09
:10308000FC01EE0FFF1FE80FF91FE251FD4F808199
:1030900086FFC9CFE09176018E2FEE0F990BFC01D0
:1030A000EE0FFF1FE80FF91FE251FD4F808160E036
:1030B0008F730E941506B7CF209184003091850050
:1030C000E09176018E2FEE0F990BFC01EE0FFF1FA2
:1030D000E80FF91FE251FD4F81819281820F931F0A
:1030E0009093890080938800E09176018E2FEE0FF7
:1030F000990BFC01EE0FFF1FE80FF91FE251FD4F86
:10310000808186FF11C0E09176018E2FEE0F990B22
:10311000FC01EE0FFF1FE80FF91FE251FD4F808108
:1031200061E08F730E941506FF91EF91DF91CF91BF
:10313000BF91AF919F918F917F916F915F914F91CF
:103140003F912F910F900FBE0F901F90189580E424
:103150009CE990938900809388008FEF809376019B
:10316000E3CF109254021092530288EE93E0A0E055
:10317000B0E08093550290935602A0935702B0930B
:10318000580222E131E0309352022093510225ECA3
:1031900030E030935E0220935D0224EC30E0309307
:1031A000600220935F0220EC30E0309362022093B3
:1031B000610221EC30E0309364022093630222EC40
:1031C00030E0309366022093650226EC30E03093C5
:1031D00068022093670210926A0210926B021092AA
:1031E0006C0210926D0210921903109218038093D2
:1031F0001A0390931B03A0931C03B0931D0384E256
:1032000091E0909317038093160310922503109278
:10321000240320E830E0309327032093260380E442
:1032200090E0909329038093280330932B032093FD
:103230002A0390932D0380932C031092380310924D
:103240002F0310922E03109231031092300381E06D
:1032500080933703809336032FEF3FEF309335038E
:103260002093340330933303209332038093390344
:1032700010923A0310923C0310923B0386E391E0D4
:10328000909323038093220310923E0310923D03F8
:1032900086E193E09093400380933F0310924203B2
:1032A000109241039FEF90934603909347039093AE
:1032B00048039093490390934A0340E85AE166E03B
:1032C00070E04093570350935803609359037093F1
:1032D0005A0340EA56E861E070E040935B03509384
:1032E0005C0360935D0370935E0380E580936003ED
:1032F00010926103809112038C3098F491E0980F42
:10330000909312038093130390E0FC01EE0FFF1FD4
:10331000E80FF91FE251FD4F88EB9BE09283818318
:103320000895909313030895CF93DF9300D000D0B6
:10333000CDB7DEB7789484B5826084BD84B58160F2
:1033400084BD85B5826085BD85B5816085BD809170
:103350006E00816080936E001092810080918100E8
:1033600082608093810080918100816080938100E0
:10337000809180008160809380008091B1008460A2
:103380008093B1008091B00081608093B000809103
:103390007A00846080937A0080917A0082608093C2
:1033A0007A0080917A00816080937A0080917A001F
:1033B000806880937A001092C1008DE00E947905A8
:1033C000E0916102F091620282E08083E0915D020F
:1033D000F0915E021082E0915F02F09160028FEC4A
:1033E000808310926902E0916502F091660286E0A6
:1033F0008083E0916302F091640280818061808328
:10340000E0916302F0916402808188608083E091A2
:103410006302F0916402808180688083E09163029E
:10342000F091640280818F7D80836AE671E081E59E
:1034300092E00E94B31461E771E081E592E00E949E
:10344000B314809113038C3008F050C086E00E94C2
:10345000790580911303282F30E0F901EE0FFF1F4B
:10346000E20FF31FE251FD4F9081907C96609083B4
:1034700010921403109215032CE0622F0E943F2239
:10348000829FB001112430E020E0AB01420F531FB6
:10349000FA01EE0FFF1FE40FF51FE251FD4F90817F
:1034A00096FD16C02F5F3F4F2C30310571F781110B
:1034B0000FC01092800082E08093810010928500FE
:1034C00010928400B19A80916F00826080936F00A7
:1034D000E09113038E2F90E0FC01EE0FFF1FE80F29
:1034E000F91FE251FD4F80818064808380912E021C
:1034F00090912F02865A9F4F0E9499058091410317
:1035000090914203892B11F10E949114209128037C
:1035100030912903809126039091270321323105B0
:103520000CF052C0B9016052710977FF02C06F5FA1
:103530007F4F759567958357910997FD019600E236
:1035400010E023E730E04AE855E051C0209128031D
:1035500030912903C901079697FD0796B3E0959529
:103560008795BA95E1F72091260330912703AC01A6
:10357000429FC001439F900D529F900D11240E94C5
:1035800079229093420380934103892B09F0BCCFA9
:103590002AE23AE03A832983E981FA816491662339
:1035A00061F081E592E00E945A0729813A812F5FFC
:1035B0003F4F3A832983892B79F761E771E081E5F1
:1035C00092E00E94B314FFCFB9016054710977FFF4
:1035D00002C06F5F7F4F759567958255910997FD82
:1035E000019600E410E022E530E04AE657E09595C8
:1035F00087950E94AE0C82E08093440380913F0344
:1036000090914003892B09F4E6C28CE38093430335
:1036100010922D0210922C0210924E0210924D0226
:103620000E94451088EB96E090932B0280932A022B
:1036300089EB96E0909329028093280280914A03B7
:1036400087FD1DC00E94790561E080914A030E94B8
:10365000150661E070E080E090E00E94860660E080
:1036600080914A030E9415066AE070E080E090E0D5
:103670000E94860661E080914A030E9415068091AF
:103680003F0390914003892B09F45FC320915703B6
:10369000309158034091590350915A0360E074E20D
:1036A00084EF90E00E94CB1F20513109410951095C
:1036B00056954795379527952093B80064E086E89E
:1036C00095E00E94F01160912803615082E293E03E
:1036D0000E94A51264E082E895E00E94F0118091BA
:1036E000440364E1813009F460E182E293E00E94E6
:1036F000A51264E08EE795E00E94F0118FE88093B8
:103700005F0380912603909127038038910509F08B
:1037100035C380912803909129038034910509F0E5
:1037200042C380914403813009F426C38FEC809317
:103730005F0392E199836AED82E293E00E94A51211
:10374000698182E293E00E94A51261E882E293E03F
:103750000E94A51260915F0382E293E00E94A5128D
:1037600069ED82E293E00E94A5128091440361EF2B
:10377000813009F462E282E293E00E94A51266E0E1
:1037800088E795E00E94F01180913F0390914003FB
:10379000892B09F411C320915B0330915C034091A4
:1037A0005D0350915E0360E074E284EF90E00E945C
:1037B000CB1F20513109410951095695479537953D
:1037C00027952093B8000E94071360ED77E080E012
:1037D00090E00E94860682E0809336038093370350
:1037E00081E090E09093350380933403909333030A
:1037F0008093320380933A030E94911443E050E097
:103800005A83498361E08DE00E94150668EE73E0FB
:1038100080E090E00E94860660E08DE00E94150640
:1038200068EE73E080E090E00E94860689819A81CC
:1038300001979A838983892B29F72FB7F894609190
:1038400045027091460280914702909148022FBF35
:10385000609340027093410280934202909343022E
:10386000611571058105910511F00E94901F04E119
:1038700010E080E0282E80E0382E2FB7F894809159
:10388000450290914602A0914702B09148022FBF95
:103890004091400250914102609142027091430276
:1038A000841B950BA60BB70B80933C0290933D02B3
:1038B000A0933E02B0933F02893C9105A105B1055A
:1038C0000CF4DEC02FB7F894809145029091460227
:1038D000A0914702B09148022FBF8093400290937D
:1038E0004102A0934202B093430260913C02709166
:1038F0003D0280913E0290913F020E94182120E0FB
:1039000030E04AE754E40E946E202B013C01809095
:10391000000190900101A0900201B0900301A50167
:10392000940160E070E088E492E40E94FC1F6B0167
:103930007C01AC019B01C301B2010E94CD21209109
:1039400038023091390240913A0250913B020E9474
:10395000FD1F69837A838B839C8360933802709305
:10396000390280933A0290933B02209134023091C5
:1039700035024091360250913702C701B6010E94CC
:10398000FC1FA30192010E946E202B013C01C092FA
:103990003402D0923502E0923602F092370220E0F3
:1039A00030E040E05FE3C701B6010E94CD216B012A
:1039B0007C0120E030E0A90169817A818B819C81C2
:1039C0000E94CD219B01AC01C701B6010E94FD1FE1
:1039D0006B017C0120E030E0A901C301B2010E942B
:1039E000CD219B01AC01C701B6010E94FD1F6B01F7
:1039F0007C01C0923002D0923102E0923202F09209
:103A000033020E94E0208AE590E0861B970B853BFD
:103A1000910514F084EB90E097FF02C090E080E005
:103A200090932F0280932E020E9499052DEC3CEC7E
:103A30004CE45DE3C701B6010E94CD216B017C011E
:103A400020E030E040EF51E4C501B4010E94FC1FCA
:103A50002AE037ED43E25CE30E94CD219B01AC01FB
:103A6000C701B6010E94FC1FA50194010E94FD1F21
:103A70006093000170930101809302019093030110
:103A80000E94411F24E630E040E050E00E94991F70
:103A900066357105810591050CF454C02FB7F89473
:103AA00060914502709146028091470290914802D0
:103AB0002FBF28EE33E040E050E00E94CB1FC90149
:103AC0006FE070E00E944B22892BE1F50E94411FBC
:103AD00024E130E040E050E00E94991F0E9418214C
:103AE0009B01AC0160910001709101018091020184
:103AF000909103010E94FD1F6093000170930101EA
:103B000080930201909303010E94411F2AE030E05C
:103B100040E050E00E94991F0E9418219B01AC01D7
:103B20006091000170910101809102019091030167
:103B30000E94FC1F609300017093010180930201B9
:103B4000909303012AE042E350E060E070E081E5F9
:103B500092E00E94C21464E771E081E592E00E9465
:103B6000B3144091000150910101609102017091E4
:103B7000030122E081E592E00E940E1561E771E009
:103B800081E592E00E94B3140E949114A3E2B0E098
:103B9000B0932F03A0932E031093310300933003AF
:103BA0004091000150910101609102017091030167
:103BB00022E082E293E00E940E150E940713211476
:103BC000310409F45ACE0E942407882309F44FCE09
:103BD0000E9400004CCE809148030E94790580919C
:103BE00049030E94790580914803082E000C990B27
:103BF000FC01E459F54FE491F0E0EE0FFF1FE85AA5
:103C0000F54F259134913093500320934F03FC01DD
:103C1000E058F54FE491E093550380914903082E55
:103C2000000C990BFC01E459F54FE491F0E0EE0F24
:103C3000FF1FE85AF54FA591B491B0935203A0939A
:103C40005103FC01E058F54FE491E09356038C9149
:103C5000E82BEC9380913D0390913E03892B09F46E
:103C600033C05FB75983F89480912702811124C033
:103C7000E6E7FAE08491EAE8FAE09491E82FF0E0D0
:103C8000EE0FFF1FEE59F54FA591B491EC91E9238A
:103C900021F461E08AE00E9415068AE00E9479051D
:103CA0008CB580618CBD8CB580648CBD8DE00E942C
:103CB00079058BE00E947905809127028F5F8093C0
:103CC000270289818FBFBACC809146030E94790573
:103CD000809147030E94790580914603082E000CCD
:103CE000990BFC01E459F54FE491F0E0EE0FFF1F52
:103CF000E85AF54F2591349130934C0320934B03B0
:103D0000FC01E058F54FE491E093530380914703A1
:103D1000082E000C990BFC01E459F54FE491F0E0FA
:103D2000EE0FFF1FE85AF54FA591B491B0934E03E3
:103D3000A0934D03FC01E058F54FE491E093540348
:103D40008C91E095E823EC9379CC80913D039091A0
:103D50003E03892B31F080916003909161030E94B2
:103D60001A10E0915103F091520390818091560313
:103D7000809589238083A2CC8FE9D9CC80369105A8
:103D8000A9F48091280390912903409791F48091A0
:103D90004403813031F08FEA80935F03A2E0A9836E
:103DA000CACC80E1F9CFB2E0B983C5CCE2E0E983C7
:103DB000C2CCF2E0F983BFCCE0915103F091520301
:103DC000808190915603892B8083FDCC86E391E01E
:103DD00090932303809322038091410390914203A7
:103DE000009711F00C94152308958F929F92AF9233
:103DF000BF92CF92DF92EF92FF92CF93DF93EC01CD
:103E0000688179818A819B816115710581059105A0
:103E100021F464E279ED8BE597E02DE133EF41E0A9
:103E200050E00E94991F49015A019B01AC01A7EA89
:103E3000B1E40E94B81F6B017C01ACEEB4EFA501A8
:103E400094010E94C61FC60ED71EE81EF91EF7FE7B
:103E500006C081E0C81AD108E10880E8F80AC882E3
:103E6000D982EA82FB82C701B6019F77DF91CF91A9
:103E7000FF90EF90DF90CF90BF90AF909F908F908A
:103E800008958F929F92AF92BF92CF92DF92EF925E
:103E9000FF9260910401709105018091060190915B
:103EA0000701611571058105910521F464E279ED41
:103EB0008BE597E02DE133EF41E050E00E94991F40
:103EC00049015A019B01AC01A7EAB1E40E94B81F65
:103ED0006B017C01ACEEB4EFA50194010E94C61FFA
:103EE000C60ED71EE81EF91EF7FE06C081E0C81AEE
:103EF000D108E10880E8F80AC0920401D0920501D7
:103F0000E0920601F0920701C701B6019F77FF908A
:103F1000EF90DF90CF90BF90AF909F908F900895DB
:103F2000609304017093050180930601909307014B
:103F30000895052E97FB1EF400940E94B01F57FDB4
:103F400007D00E94CB1F07FC03D04EF40C94B01F87
:103F500050954095309521953F4F4F4F5F4F0895B5
:103F600090958095709561957F4F8F4F9F4F0895E5
:103F70000E94ED1FA59F900DB49F900DA49F800DF2
:103F8000911D11240895B7FF0C94B81F0E94B81F0B
:103F9000821B930B0895A1E21A2EAA1BBB1BFD01E5
:103FA0000DC0AA1FBB1FEE1FFF1FA217B307E40718
:103FB000F50720F0A21BB30BE40BF50B661F771F70
:103FC000881F991F1A9469F7609570958095909550
:103FD0009B01AC01BD01CF010895A29FB001B39F29
:103FE000C001A39F700D811D1124911DB29F700D02
:103FF000811D1124911D08955058BB27AA270E94A6
:1040000014200C948E210E94802138F00E94872178
:1040100020F039F49F3F19F426F40C947D210EF41E
:10402000E095E7FB0C947721E92F0E949F2158F33C
:10403000BA17620773078407950720F079F4A6F58D
:104040000C94C1210EF4E0950B2EBA2FA02D0B017C
:10405000B90190010C01CA01A0011124FF27591BCD
:1040600099F0593F50F4503E68F11A16F040A22FD3
:10407000232F342F4427585FF3CF46953795279544
:10408000A795F0405395C9F77EF41F16BA0B620B43
:10409000730B840BBAF09150A1F0FF0FBB1F661F8A
:1040A000771F881FC2F70EC0BA0F621F731F841FCD
:1040B00048F4879577956795B795F7959E3F08F0F3
:1040C000B0CF9395880F08F09927EE0F97958795B5
:1040D00008950E94532108F481E008950E948220EF
:1040E0000C948E210E94872158F00E94802140F07C
:1040F00029F45F3F29F00C94772151110C94C221CF
:104100000C947D210E949F2168F39923B1F35523DC
:1041100091F3951B550BBB27AA27621773078407DA
:1041200038F09F5F5F4F220F331F441FAA1FA9F370
:1041300035D00E2E3AF0E0E832D091505040E6955E
:10414000001CCAF72BD0FE2F29D0660F771F881FBF
:10415000BB1F261737074807AB07B0E809F0BB0BB2
:10416000802DBF01FF2793585F4F3AF09E3F5105C6
:1041700078F00C9477210C94C2215F3FE4F3983ED1
:10418000D4F3869577956795B795F7959F5FC9F7AF
:10419000880F911D9695879597F90895E1E0660F30
:1041A000771F881FBB1F621773078407BA0720F0A9
:1041B000621B730B840BBA0BEE1F88F7E095089512
:1041C0000E94E7206894B1110C94C22108950E94C6
:1041D000A72188F09F5798F0B92F9927B751B0F0D1
:1041E000E1F0660F771F881F991F1AF0BA95C9F77B
:1041F00014C0B13091F00E94C121B1E008950C9437
:10420000C121672F782F8827B85F39F0B93FCCF3E9
:10421000869577956795B395D9F73EF490958095F7
:10422000709561957F4F8F4F9F4F0895E89409C017
:1042300097FB3EF490958095709561957F4F8F4FD9
:104240009F4F9923A9F0F92F96E9BB279395F695EF
:10425000879577956795B795F111F8CFFAF4BB0F6D
:1042600011F460FF1BC06F5F7F4F8F4F9F4F16C0D1
:10427000882311F096E911C0772321F09EE8872F5B
:10428000762F05C0662371F096E8862F70E060E017
:104290002AF09A95660F771F881FDAF7880F969590
:1042A000879597F90895990F0008550FAA0BE0E834
:1042B000FEEF16161706E807F907C0F012161306E8
:1042C000E407F50798F0621B730B840B950B39F428
:1042D0000A2661F0232B242B252B21F408950A268E
:1042E00009F4A140A6958FEF811D811D089597F9CE
:1042F0009F6780E870E060E008959FEF80EC08958C
:1043000000240A94161617061806090608950024B4
:104310000A9412161306140605060895092E03942E
:10432000000C11F4882352F0BB0F40F4BF2B11F4A2
:1043300060FF04C06F5F7F4F8F4F9F4F089557FD01
:104340009058440F551F59F05F3F71F04795880F03
:1043500097FB991F61F09F3F79F08795089512169A
:1043600013061406551FF2CF4695F1DF08C0161646
:1043700017061806991FF1CF8695710561050894F7
:104380000895E894BB2766277727CB0197F908950E
:104390000E94532108F48FEF08950E94E0210C94AD
:1043A0008E210E94802138F00E94872120F09523E1
:1043B00011F00C9477210C947D2111240C94C221CE
:1043C0000E949F2170F3959FC1F3950F50E0551FF8
:1043D000629FF001729FBB27F00DB11D639FAA275A
:1043E000F00DB11DAA1F649F6627B00DA11D661FA9
:1043F000829F2227B00DA11D621F739FB00DA11DCA
:10440000621F839FA00D611D221F749F3327A00D83
:10441000611D231F849F600D211D822F762F6A2F1F
:1044200011249F5750409AF0F1F088234AF0EE0F84
:10443000FF1FBB1F661F771F881F91505040A9F7B1
:104440009E3F510580F00C9477210C94C2215F3F70
:10445000E4F3983ED4F3869577956795B795F795ED
:10446000E7959F5FC1F7FE2B880F911D9695879565
:1044700097F908950E945321880B990B0895991B71
:1044800079E004C0991F961708F0961B881F7A954B
:10449000C9F78095089597FB072E16F4009407D06E
:1044A00077FD09D00E945F2207FC05D03EF490956D
:1044B00081959F4F0895709561957F4F0895AA1B30
:1044C000BB1B51E107C0AA1FBB1FA617B70710F0FF
:1044D000A61BB70B881F991F5A95A9F78095909531
:1044E000BC01CD010895EE0FFF1F0590F491E02D62
:1044F00009940F931F93CF93DF938230910510F4AB
:1045000082E090E0E0916403F091650330E020E008
:10451000B0E0A0E0309799F42115310509F44AC0C4
:10452000281B390B24303105D8F58A819B81611510
:10453000710589F1FB0193838283FE0111C04081E3
:1045400051810281138148175907E0F04817590734
:1045500099F4109761F012960C93129713961C938E
:104560003296CF01DF91CF911F910F910895009363
:10457000640310936503F4CF2115310551F0421700
:10458000530738F0A901DB019A01BD01DF01F801F1
:10459000C1CFEF01F9CF9093650380936403CDCF32
:1045A000FE01E20FF31F8193919322503109398369
:1045B0002883D7CF2091620330916303232B41F4EA
:1045C00020910A0130910B01309363032093620321
:1045D00020910801309109012115310541F42DB7D1
:1045E0003EB740910C0150910D01241B350BE09119
:1045F0006203F0916303E217F307A0F42E1B3F0B55
:104600002817390778F0AC014E5F5F4F2417350744
:1046100048F04E0F5F1F50936303409362038193F2
:1046200091939FCFF0E0E0E09CCFCF93DF93009792
:10463000E9F0FC01329713821282A0916403B091D9
:104640006503ED0130E020E01097A1F42081318175
:10465000820F931F2091620330916303281739075B
:1046600009F061C0F0936303E0936203DF91CF919F
:104670000895EA01CE17DF07E8F54A815B819E01C4
:1046800041155105B1F7E901FB83EA83499159913D
:10469000C40FD51FEC17FD0761F48081918102964C
:1046A000840F951FE90199838883828193819B837D
:1046B0008A83F0E0E0E012968D919C911397009729
:1046C000B9F52D913C911197CD010296820F931F60
:1046D00020916203309163032817390739F6309728
:1046E00051F51092650310926403B0936303A09395
:1046F0006203BCCFD383C28340815181840F951F55
:10470000C817D90761F44E5F5F4F88819981480FC0
:10471000591F518340838A819B8193838283211512
:10472000310509F0B0CFF0936503E09364039ECFA9
:10473000FD01DC01C0CF13821282D7CF81E090E06F
:10474000F8940C94AA23DC0101C06D9341505040B1
:10475000E0F7089515E0CEE4D5E004C0FE010E9424
:0E47600073222196CF34D107C9F7F894FFCF0A
:10476E000000F04101000000000066038000000020
:10477E0000005A07BA06E706A7071807F6060A0743
:10478E0000000000DA10AD108E149805A6109310DC
:10479E00841000000000020ABA068E141D10630F6A
:1047AE009805A70C7F0C9B0C8F0C0F0D9805C80756
:1047BE003814D30E1C0FC80BAB0B330BD40A6E611F
:1047CE006E00696E66006F76660053502C20505650
:0647DE00000D0A0020009E
:00000001FF
